S01700002E2F44656275672F537973745469636B2E7331392C
S315200000000248854600F050F8FEE7C04600C00120B1
S3152000001080B500AF0B4B00221A600B4B1B685A1E93
S31520000020094B1A60084B1B68002B02DD00F060F8B4
S3152000003002E0064B01221A60044B01221A60C046D8
S31520000040BD4680BD10E000E0540100205001002094
S3152000005080B500AF0B4B0C4A1A600C4B0C4A1A6049
S315200000600C4B70221A800C4BAA221A600B4B0B4A9F
S315200000701278D2B21A700A4B0A4A1A60C046BD4696
S3152000008080BDC0460010024055555555000C024013
S3152000009055550055040C02400C0C0240150C02402C
S315200000A03CC001201100002080B582B000AFFFF7D0
S315200000B0CFFF00237B600C4B00221A70642000F0D7
S315200000C02FF8094BFF221A70084B1B68002B03D10F
S315200000D07B6801337B60F7E7C046034B00221A702A
S315200000E0C046BD4602B080BD14100240500100201B
S315200000F080B500AF074B00221A60074BA7221A6073
S31520000100064B00221A60034B07221A60C046BD46E2
S3152000011080BDC04610E000E014E000E018E000E0FA
S3152000012080B582B000AF78607B68002B08D07A68F3
S31520000130054B1A60054B00221A60FFF7D9FF00E035
S31520000140C046BD4602B080BD5401002050010020AB
S30D20000150000000000000000081
S70520000000DA
