S01400002E2F44656275672F44656C61792E7331397E
S315200000000248854600F022F8FEE7C04600C00120DF
S3152000001080B500AF084B094A1A60094B70221A8036
S31520000020084BAA221A60084B074A1278D2B21A70D5
S31520000030C046BD4680BDC0460010024055550055FD
S31520000040041002400C1002401510024080B582B008
S3152000005000AFFFF7DDFF0B4B1B78DAB2FB1D1A70E2
S31520000060084B00221A70FA235B00180000F044F8AF
S31520000070044BFF221A70FA235B00180000F03CF8AC
S31520000080EEE7C0461410024080B500AF0C4B0022AC
S315200000901A600C4B29221A600B4B00221A60084B5F
S315200000A005221A60C046064B1A6880235B0213405D
S315200000B0F9D0034B00221A60C046BD4680BDC0461B
S315200000C010E000E014E000E018E000E080B582B027
S315200000D000AF786007E0FFF7D7FFFFF7D5FFFFF700
S315200000E0D3FFFFF7D1FF7B685A1E7A60002BF2D12F
S315200000F0C046BD4602B080BD80B582B000AF7860F4
S3152000010002E00120FFF7E2FF7B685A1E7A60002B8F
S31120000110F7D1C046BD4602B080BDC046F7
S70520000000DA
