S02500002E2F44656275672F666C69705F666C6F705F6972715F766563746F7265642E7331393B
S315200000000248854600F05EF9FEE7C04600C00120A2
S3152000001080B500AF124BFF221A70124B1B680822C4
S3152000002013400AD0104B1B685A1C0F4B1A600D4BFD
S315200000300C4A126808210A431A600A4B094A1268B8
S3152000004008210A431A60094B70221A60074B074A97
S31520000050126870218A431A60C046BD4680BDC046DC
S31520000060140C0240143C01401403002014100240DA
S3152000007080B500AF104BFF221A70104B1B6804226C
S31520000080134007D000F02CF90C4B0C4A12680421BF
S315200000900A431A60094B094A126804210A431A6066
S315200000A0074B70221A60064B054A126870218A4354
S315200000B01A60C046BD4680BD140C0240143C014067
S315200000C01410024080B500AF114BFF221A70114B5D
S315200000D01B680222134008D00F4B00221A600D4BDA
S315200000E00C4A126802210A431A600A4B094A12680E
S315200000F002210A431A60094B70221A60074B074AED
S31520000100126870218A431A60C046BD4680BDC0462B
S31520000110140C0240143C0140140300201410024029
S3152000012080B500AF124BFF221A70124B1B680122BA
S3152000013013400AD0104B1B685A1C0F4B1A600D4BEC
S315200001400C4A126801210A431A600A4B094A1268AE
S3152000015001210A431A60094B70221A60074B074A8D
S31520000160126870218A431A60C046BD4680BDC046CB
S31520000170140C0240143C01401403002014100240C9
S3152000018080B500AF3B4B3C4A1A603C4B70221A802C
S315200001903B4BAA221A603B4B3A4A1278D2B21A70CB
S315200001A0394BAA22D2011A60384B00221A80384BCA
S315200001B0314A1A60374B00221A60374B364A12688A
S315200001C08021C9010A431A60344B344A126804213B
S315200001D00A431A60324B324A126801210A431A60D6
S315200001E0304B304A126801210A431A602E4B2F4A9F
S315200001F01A602F4B2E4A126840210A431A60274B59
S31520000200264A126840210A431A60254B244A12685E
S3152000021002210A431A60234B224A126802210A430A
S315200002201A60244B244A1A60214B214A12688021E5
S315200002300A431A60194B194A12688021C9000A43D9
S315200002401A60174B164A126804210A431A60154B86
S31520000250144A126804210A431A60184B184A1A6075
S31520000260134B134A1268802149000A431A60C0467C
S31520000270BD4680BD000C024055555555040C024024
S315200002800C0C0240150C02400010024004100240E3
S31520000290081002400C100240443802400838014041
S315200002A0003C01400C3C014058C0012021010020A7
S315200002B000E100E05CC00120C500002060C00120F4
S315200002C07100002080B500AFFFF75AFF024A034BAA
S315200002D01B68DBB21370F9E7140C024014030020EC
S315200002E080B500AF094B1B78002B06D1084BFF22A7
S315200002F01A70064B01221A7005E0054B00221A706F
S31520000300024B00221A70C046BD4680BD180300204D
S311200003101A03002000000000000000007E
S70520000000DA
