S01500002E2F44656275672F6B65797061642E733139EE
S315200000000248854600F0CEF8FEE7C04600C0012033
S3152000001080B500AF084B094A1A60094B70221A8036
S31520000020084BAA221A60084B074A1278D2B21A70D5
S31520000030C046BD4680BDC046000C02405555005501
S31520000040040C02400C0C0240150C024080B582B014
S3152000005000AF78607B68042B19D87B689A000E4B1A
S31520000060D3181B689F460D4B10221A700FE00B4BBE
S3152000007020221A700BE0094B40221A7007E0074B2A
S3152000008080221A7003E0054B00221A70C046C04633
S31520000090BD4602B080BDC046BC010020150C024002
S315200000A090B587B000AF0200FB1D1A700823FB181D
S315200000B00B4A13CA13C312681A60FB1D1B78FF2B49
S315200000C003D1084B00221A7006E00649FB1D1B7857
S315200000D00822BA18D35C0B70C046BD4607B090BD47
S315200000E0D0010020140C024080B582B000AF124A25
S315200000F0FB1D12781A70FB1D1B780822134001D0B5
S31520000100042315E0FB1D1B780422134001D0032392
S315200001100EE0FB1D1B780222134001D0022307E0CC
S31520000120FB1D1B780122134001D0012300E0002390
S315200001301800BD4602B080BD110C024090B587B0B4
S3152000014000AF3B00164A13CA13C312681A60012374
S315200001507B6119E07B691800FFF778FFFFF7C4FF82
S3152000016003003B613B69002B0BD00020FFF76EFF9D
S315200001707B69013B9A003B69013BD3183A00D35C6B
S3152000018009E07B6901337B617B69042BE2DD00207A
S31520000190FFF75CFFFF231800BD4607B090BDC046A1
S315200001A0E001002080B500AFFFF732FFFFF7C6FF62
S315200001B003001800FFF774FFF8E7C046860000200A
S315200001C0660000206E000020760000207E000020C1
S315200001D03F065B4F666D7D077F67F7FFB9BFF9F175
S315200001E00102030A0405060B0708090C0E000F0D71
S70520000000DA
