S01400002E2F44656275672F61736369692E73313964
S315200000000248854600F09CF9FEE7C04600C0012064
S3152000001080B500AF0C4B00221A600C4B29221A60C7
S315200000200B4B00221A60084B05221A60C046064B6D
S315200000301A6880235B021340F9D0034B00221A6012
S31520000040C046BD4680BDC04610E000E014E000E09A
S3152000005018E000E080B582B000AF7860C046C046A8
S31520000060BD4602B080BD80B582B000AF786007E0A3
S31520000070FA239B001800FFF7EDFF7B68013B7B60AE
S315200000807B68002BF4D1C046BD4602B080BD80B54A
S3152000009084B000AF0200FB1D1A700D4A0F23FB1817
S315200000A012781A70FA1D0F23FB1812781B78134347
S315200000B0DAB20F23FB1804210A431A70044A0F23CD
S315200000C0FB181B781370C046BD4604B080BDC046E1
S315200000D01410024080B584B000AF0200FB1D1A70D8
S315200000E00F4A0F23FB1812781A70FB1D1B785BB280
S315200000F0DB435BB2042213435BB20F22BA18127899
S3152000010052B213405AB20F23FB181A70044A0F2317
S31520000110FB181B781370C046BD4604B080BDC04690
S315200001201410024080B582B000AF0200FB1D1A7089
S315200001304020FFF7ACFF064AFB1D1B7813704020BA
S31520000140FFF7C8FFFFF764FFC046BD4602B080BD7B
S315200001501510024080B582B000AF0200FB1D1A7058
S315200001600320FFF7B7FFFB1D1B781800FFF7DAFF08
S31520000170C046BD4602B080BD80B582B000AF020049
S31520000180FB1D1A700220FFF7A5FF0120FFF77FFF56
S31520000190FB1D1B781800FFF7C5FFC046BD4602B001
S315200001A080BD80B582B000AF4020FFF770FFFFF71B
S315200001B02FFFFFF72DFF064AFB1D12781A704020ED
S315200001C0FFF788FFFB1D1B781800BD4602B080BDD7
S315200001D01110024090B583B000AF0B4B0B4A1A604A
S315200001E00220FFF754FF0120FFF774FFFC1DFFF7E5
S315200001F0D8FF03002370044B054A1A60FB1D1B78A9
S315200002001800BD4603B090BD0010024055550000B1
S315200002105555555580B500AFC046FFF7DBFF0300A7
S315200002201A0080231340802BF7D00820FFF712FFF7
S31520000230C046BD4680BD80B582B000AF0200FB1D22
S315200002401A70FFF7E7FFFB1D1B781800FFF794FFD6
S315200002502720FFF7FFFEC046BD4602B080BD80B511
S3152000026000AFFFF7D7FF0C20FFF774FF2720FFF71B
S31520000270F1FEFFF7CFFF3820FFF76CFF2720FFF7AF
S31520000280E9FEFFF7C7FF0120FFF764FF0220FFF713
S31520000290EAFEFFF7BFFF0620FFF75CFF2720FFF7E8
S315200002A0D9FEC046BD4680BD80B584B000AF0200F1
S315200002B0FB1D1A70BB1D0A1C1A70FFF7ABFFBB1D76
S315200002C01B78012B0BD0FB1D1B78013BDBB25BB2ED
S315200002D0402213435AB20F23FB181A7005E00F234E
S315200002E0FB18FA1D1278013A1A700F23FB181B7897
S315200002F0802252421343DBB21800FFF72BFFC04681
S31520000300BD4604B080BD80B500AF074B074A1A60D2
S31520000310074B00221A80074B044A1A60064B074AED
S315200003201A60C046BD4680BD0010024055550000EB
S3152000033004100240081002400C10024000005555DF
S3152000034090B58DB000AF786039601C23FB181E4A2B
S3152000035013CA13C312781A700C23FB181B4A13CA2C
S3152000036013C31188198092789A70FFF7CCFFFFF794
S3152000037076FF01210120FFF797FF1C23FB18FB6264
S3152000038006E0FB6A5A1CFA621B781800FFF753FF37
S31520000390FB6A1B78002BF4D102210120FFF784FF92
S315200003A00C23FB18FB6206E0FB6A5A1CFA621B78D8
S315200003B01800FFF740FFFB6A1B78002BF4D10023BF
S315200003C01800BD460DB090BDD0030020E0030020EC
S315200003D0416C66616E756D657269736B0000000015
S315200003E0446973706C6179202D20746573740000E4
S70520000000DA
