S02100002E2F44656275672F666C6970666C6F705F6972715F61636B5F322E7331393A
S315200000000248854600F00AF9FEE7C04600C00120F6
S3152000001080B500AF1C4BFF221A701C4B1B680822B0
S3152000002013402ED01A4B1B78DBB21A000123134043
S3152000003005D0184B1B780133DAB2164B1A70144BC5
S315200000401B78DBB21A000223134002D0114B002288
S315200000501A700F4B1B78DBB21A000423134001D011
S3152000006000F0C2F8094B094A126808210A431A60AF
S31520000070094B70221A60084B074A126870218A437E
S315200000801A60C046BD4680BD140C0240143C014097
S31520000090101002403A0200201410024080B500AF32
S315200000A0044B00221A60044B01221A70C046BD463A
S315200000B080BDC04610E000E03902002080B500AFC8
S315200000C01F4B204A1A60204BAA22D2011A601F4BCE
S315200000D000221A801E4B1B4A1A801E4B00221A60D1
S315200000E01D4B1D4A12688021C9010A431A601B4B09
S315200000F01A4A1268120B12031A60184B174A126812
S315200001008021C9010A431A60154B154A1268082135
S315200001100A431A60134B134A126808210A431A60CD
S31520000120114B124A1A60124B114A1268802189001B
S315200001300A431A600F4B00221A70C046BD4680BD86
S31520000140000C0240555500000010024004100240E9
S31520000150081002400C100240443802400838014082
S31520000160003C01400C3C014064C0012011000020ED
S3152000017000E100E03A02002080B500AF084B0022E3
S315200001801A70084B00221A60074B29221A60074B67
S3152000019000221A60034B07221A60C046BD4680BD66
S315200001A03902002010E000E014E000E018E000E052
S315200001B080B584B000AF78600023FB6009E0FFF7CC
S315200001C0DBFFC046074B1B78002BFBD0FB680133B7
S315200001D0FB60FA687B689A42F1D3C046BD4604B0FC
S315200001E080BDC0463902002080B500AF094B1B7880
S315200001F0002B06D1084BFF221A70064B01221A70DB
S3152000020005E0054B00221A70024B00221A70C046E8
S31520000210BD4680BD380200203A02002080B500AFDE
S31520000220FFF74CFF024A034B1B781370FAE7C046D0
S31120000230140C02403A02002000000000DE
S70520000000DA
