S01300002E2F44656275672F706F6E672E733139BA
S315200000000248854600F050F9FEE7C04600C00120B0
S3152000001080B584B000AFF860B9607A60FB68BA68D2
S315200000205A60FB687A689A60C046BD4604B080BDB7
S3152000003080B586B000AF78607B681B680C337B6127
S3152000004000233B6117E07B68DB687A6912789B188E
S31520000050FB607B681B697A6952789B18BB60B9681C
S31520000060FB680122180000F0AFFB7B6902337B613D
S315200000703B6901333B617B681B681A683B699A427E
S31520000080E1DCC046BD4606B080BD80B586B000AF77
S3152000009078607B681B680C337B6100233B6117E02B
S315200000A07B68DB687A6912789B18FB607B681B6922
S315200000B07A6952789B18BB60B968FB6800221800E1
S315200000C000F082FB7B6902337B613B6901333B6134
S315200000D07B681B681A683B699A42E1DCC046BD46CC
S315200000E006B080BD80B584B000AF78607B6818000C
S315200000F0FFF7CBFF7B68DA687B685B68D2187B6882
S31520000100DA607B681A697B689B68D2187B681A61FB
S315200001107B68DB68FB607B681B69BB607B681800BB
S31520000120FFF786FFC046BD4604B080BD80B500AF50
S315200001300F4B104A1A60104B70221A800F4BAA22BE
S315200001401A600F4B0E4A1278D2B21A700D4B0E4A15
S315200001501A600E4B70221A800D4BAA221A600D4B84
S315200001600C4A1278D2B21A70C046BD4680BDC0462F
S315200001700010024055555555041002400C100240FF
S3152000018015100240000C024055550055040C024043
S315200001900C0C0240150C024080B582B000AF124A0A
S315200001A0FB1D12781A70FB1D1B780822134001D004
S315200001B0042315E0FB1D1B780422134001D00323E2
S315200001C00EE0FB1D1B780222134001D0022307E01C
S315200001D0FB1D1B780122134001D0012300E00023E0
S315200001E01800BD4602B080BD110C024080B582B019
S315200001F000AF78607B68042B19D87B689A000E4B79
S31520000200D3181B689F460D4B10221A700FE00B4B1C
S3152000021020221A700BE0094B40221A7007E0074B88
S3152000022080221A7003E0054B00221A70C046C04691
S31520000230BD4602B080BDC046D80A0020150C02403B
S3152000024090B587B000AF3B00164A13CA13C3126895
S315200002501A6001237B6119E07B691800FFF7C6FF4E
S31520000260FFF79AFF03003B613B69002B0BD0002070
S31520000270FFF7BCFF7B69013B9A003B69013BD31822
S315200002803A00D35C09E07B6901337B617B69042BEF
S31520000290E2DD0020FFF7AAFFFF231800BD4607B0C6
S315200002A090BDC046EC0A002090B583B000AFFFF7A2
S315200002B03DFF1F4B7B6000F016F900F052FA7B6879
S315200002C0DB697A6810009847282000F05EF8FC1C4D
S315200002D0FFF7B6FF03002370FB1C1B78042B0FD0FF
S315200002E002DC022B14D022E0062B02D0082B17D0DA
S315200002F01DE07B681B6A786800220221984716E079
S315200003007B681B6A022251427868002298470EE0D9
S315200003107B681B6A0222524278680021984706E0D1
S315200003207B681B6A7868022200219847C046C6E788
S31520000330B40A002080B500AF0C4B00221A600C4B8B
S3152000034029221A600B4B00221A60084B05221A60DC
S31520000350C046064B1A6880235B021340F9D0034B34
S3152000036000221A60C046BD4680BDC04610E000E0AF
S3152000037014E000E018E000E080B582B000AF7860BD
S31520000380C046C046BD4602B080BD80B582B000AF33
S3152000039078607A68FA239900100000F0E5FA0300E5
S315200003A07B607B6801337B6007E0FA239B001800A3
S315200003B0FFF7E2FF7B68013B7B607B68002BF4D173
S315200003C0C046BD4602B080BD80B500AFFFF7B2FF84
S315200003D0FFF7B0FFC046BD4680BD80B584B000AFF4
S315200003E00200FB1D1A70124A0F23FB1812781A708E
S315200003F00F23FB180F22BA18127804218A431A7089
S31520000400FB1D1B785BB2042293435AB20F23FB18C1
S315200004101B785BB213435AB20F23FB181A70044A97
S315200004200F23FB181B781370C046BD4604B080BD51
S315200004301410024080B584B000AF0200FB1D1A7074
S31520000440114A0F23FB1812781A700F23FB180F225C
S31520000450BA18127804218A431A70FB1D1B785BB2E6
S31520000460DB435BB20F22BA18127852B213405AB24B
S315200004700F23FB181A70044A0F23FB181B781370DE
S31520000480C046BD4604B080BD1410024080B582B07F
S3152000049000AF0200FB1D1A70FB1D1B78082B0CD029
S315200004A002DC002B05D01AE0102B0DD0182B12D011
S315200004B015E01820FFF7BEFF11E00820FFF78DFF9B
S315200004C01020FFF7B7FF0AE01020FFF786FF08206D
S315200004D0FFF7B0FF03E01820FFF77FFFC046C046B6
S315200004E0BD4602B080BD80B500AF4020FFF775FF46
S315200004F00A20FFF741FF7820FFF79CFF1E20FFF719
S3152000050044FF2020FFF769FF6420FFF73EFF1821F4
S315200005103E2000F0E3F818213F2000F0DFF81821F4
S31520000520C02000F0DBF81821402000F0D7F8182171
S31520000530B82000F0D3F80020FFF7A8FFC046BD463C
S3152000054080BD80B582B000AF4020FFF773FF144B0B
S31520000550144A1A600120FFF76DFF0220FFF73DFFC6
S31520000560FFF732FF4020FFF738FFFFF72DFF0E4B36
S315200005701B78DAB2FB1D7F218A431A704020FFF7D1
S3152000058059FFFFF721FFFB1D1B78002B00D0E9E761
S31520000590C046034B054A1A60C046BD4602B080BD20
S315200005A00010024055550000111002405555555572
S315200005B080B584B000AF0200FB1D1A704020FFF703
S315200005C039FF1C4B1C4A1A600320FFF706FFFB1D50
S315200005D01B781800FFF75AFFFFF7F6FE4020FFF7BB
S315200005E0FCFEFFF7F1FE154A0F23FB1812781A704E
S315200005F04020FFF71FFF0F4B114A1A60FB1D1B7887
S315200006000822134004D00820FFF740FFFFF799FF88
S31520000610FB1D1B781022134004D01020FFF736FF55
S31520000620FFF78FFF0F23FB181B781800BD4604B079
S3152000063080BDC046001002405555000011100240F2
S315200006405555555580B582B000AF0200FB1D1A7076
S31520000650FB1D1B781800FFF7ABFFFB1D1B7818004E
S31520000660FFF7A6FF03001800BD4602B080BD80B587
S3152000067082B000AF0200FB1D1A70BB1D0A1C1A7047
S31520000680154AFB1D1B781370BB1D1B781800FFF73E
S31520000690FDFEFFF799FE4020FFF79FFEFFF794FE31
S315200006A04020FFF7C7FEBB1D1B780822134004D04D
S315200006B00820FFF7EBFEFFF744FFBB1D1B78102237
S315200006C0134004D01020FFF7E1FEFFF73AFFC046A3
S315200006D0BD4602B080BDC0461510024080B582B02E
S315200006E000AF0200FB1D1A70BB1D0A1C1A704020A9
S315200006F0FFF7A0FEBB1D1B781800FFF7C7FE0320DF
S31520000700FFF798FEBB1D1A78FB1D1B7811001800F9
S31520000710FFF7ADFFC046BD4602B080BD80B582B0B2
S3152000072000AF0200FB1D1A70BB1D0A1C1A70402068
S31520000730FFF780FEBB1D1B781800FFF7A7FE0120E0
S31520000740FFF74BFE0220FFF775FEBB1D1A78FB1D37
S315200007501B7811001800FFF78AFFC046BD4602B07D
S3152000076080BD80B582B000AFBB1D00221A7023E089
S31520000770BB1D1B78482252421343DBB218211800B6
S31520000780FFF7ACFF18214020FFF7A8FFFB1D002232
S315200007901A7008E018210020FFF7C0FFFB1D1A7809
S315200007A0FB1D01321A70FB1D1B783F2BF2D9BB1D96
S315200007B01A78BB1D01321A70BB1D1B78072BD7D99F
S315200007C0C046BD4602B080BD90B589B000AFF86086
S315200007D0B9607A60FB68002B00DCBCE0BB68002BAC
S315200007E000DCB8E0FB68802B00DDB4E0BB68402B62
S315200007F000DDB0E0BB68013B002B00DA0733DB10DD
S31520000800BB61BB68013B564A134004D5013B082215
S31520000810524213430133072B2CD89A00514BD3183D
S315200008201B689F461F23FB1801221A7022E01F23F4
S31520000830FB1802221A701DE01F23FB1804221A70CF
S3152000084018E01F23FB1808221A7013E01F23FB1839
S3152000085010221A700EE01F23FB1820221A7009E0BE
S315200008601F23FB1840221A7004E01F23FB18802246
S315200008701A70C0467B68002B06D11F23FB181F2247
S31520000880BA181278D2431A70FB68402B07DD1E2354
S31520000890FB1810221A70FB68413BFB6006E01E2302
S315200008A0FB1808221A70FB68013BFB60FB685BB2F1
S315200008B0402213435BB2DAB21E23FB181B781900C1
S315200008C01000FFF70BFFBB695BB24822524213436D
S315200008D05BB2DAB21E23FB181B7819001000FFF753
S315200008E0FDFE1723FC181E23FB181B781800FFF7A4
S315200008F0A9FE03002370FB685BB2402213435BB260
S31520000900DAB21E23FB181B7819001000FFF7E6FE4B
S315200009107B68002B0AD01F23FB181F22B918172229
S31520000920BA18097812780A431A7009E01F23FB18AF
S315200009301F22BA1817217918127809780A401A70D6
S315200009401E23FB181A781F23FB181B78110018008A
S31520000950FFF7E4FE00E0C046BD4609B090BDC046A4
S3152000096007000080FC0A0020002243088B4274D333
S3152000097003098B425FD3030A8B4244D3030B8B427A
S3152000098028D3030C8B420DD3FF22090212BA030C83
S315200009908B4202D31212090265D0030B8B4219D364
S315200009A000E0090AC30B8B4201D3CB03C01A524184
S315200009B0830B8B4201D38B03C01A5241430B8B42CC
S315200009C001D34B03C01A5241030B8B4201D30B03B5
S315200009D0C01A5241C30A8B4201D3CB02C01A5241DC
S315200009E0830A8B4201D38B02C01A5241430A8B429F
S315200009F001D34B02C01A5241030A8B4201D30B0288
S31520000A00C01A5241CDD2C3098B4201D3CB01C01AA1
S31520000A10524183098B4201D38B01C01A52414309AB
S31520000A208B4201D34B01C01A524103098B4201D399
S31520000A300B01C01A5241C3088B4201D3CB00C01A06
S31520000A40524183088B4201D38B00C01A524143087E
S31520000A508B4201D34B00C01A5241411A00D20146A3
S31520000A60524110467047FFE701B5002000F006F816
S31520000A7002BDC0460029F7D076E770477047C046CA
S31520000A800C00000004000000040000000001000229
S31520000A900100010101020103020002010202020318
S31520000AA00301030200000000000000000000000017
S31520000AB000000000800A0020000000000000000066
S31520000AC00100000001000000310000208B00002002
S31520000AD0E50000201100002026020020060200204A
S31520000AE00E020020160200201E0200200102030A28
S31520000AF00405060B0708090C0E000F0D240800201C
S31520000B002E08002038080020420800204C0800202B
S31120000B1056080020600800206A0800201B
S70520000000DA
