S01F00002E2F44656275672F666C6970666C6F705F6972715F61636B2E733139CD
S315200000000248854600F086F8FEE7C04600C001207B
S3152000001080B582B000AF0C4B1B68082213400ED06F
S315200000200A4B1B78DBB27B60094B1B685A1C084BBA
S315200000301A60054B044A126808210A431A60C04612
S31520000040BD4602B080BDC046143C0140101002409F
S315200000503001002080B500AF1E4B1F4A1A601F4B8F
S3152000006070221A801E4BAA221A601E4B1D4A127835
S31520000070D2B21A701C4B802252001A601B4B0022EF
S315200000801A601B4B00221A801A4B10221A70194B29
S31520000090EF221A70184B184A126818490A431A6038
S315200000A0174B174A126808210A431A60154B154A3E
S315200000B0126808210A431A60134B144A1A60144B1B
S315200000C0134A1268802189000A431A60C046BD4639
S315200000D080BDC046000C024055555555040C0240C3
S315200000E00C0C0240150C0240001002400C1002407D
S315200000F00410024014100240083801404444000015
S31520000100003C01400C3C014064C00120110000204D
S3152000011000E100E080B500AFFFF79CFF024A034BE9
S315200001201B68DBB21370F9E7140C02403001002083
S3092000013000000000A5
S70520000000DA
