S01D00002E2F44656275672F67726170686963646973706C61792E73313990
S315200000000248854600F022F8FEE7C04600C00120DF
S3152000001080B500AF084B094A1A60094B70221A8036
S31520000020084BAA221A60084B074A1278D2B21A70D5
S31520000030C046BD4680BDC0460010024055555555A8
S31520000040041002400C1002401510024080B584B006
S3152000005000AFFFF7DDFF00F020F900F05CFA002387
S31520000060FB6008E0FB6801220A21180000F086FAEE
S31520000070FB680133FB60FB687F2BF3DD0023BB604D
S3152000008008E0BB68012219000A2000F077FABB6855
S315200000900133BB60BB683F2BF3DDFA235B001800FE
S315200000A000F04DF800237B6008E07B6800220A21DF
S315200000B0180000F063FA7B6801337B607B687F2B36
S315200000C0F3DD00233B6008E03B68002219000A208C
S315200000D000F054FA3B6801333B603B683F2BF3DD6D
S315200000E0C046BD4604B080BD80B500AF0C4B002293
S315200000F01A600C4B29221A600B4B00221A60084BFF
S3152000010005221A60C046064B1A6880235B021340FC
S31520000110F9D0034B00221A60C046BD4680BDC046BA
S3152000012010E000E014E000E018E000E080B582B0C6
S3152000013000AF7860C046C046BD4602B080BD80B5DF
S3152000014082B000AF78607A68FA239900100000F038
S31520000150E5FA03007B607B6801337B6007E0FA23C6
S315200001609B001800FFF7E2FF7B68013B7B607B6802
S31520000170002BF4D1C046BD4602B080BD80B500AF8D
S31520000180FFF7B2FFFFF7B0FFC046BD4680BD80B582
S3152000019084B000AF0200FB1D1A70124A0F23FB1811
S315200001A012781A700F23FB180F22BA18127804211E
S315200001B08A431A70FB1D1B785BB2042293435AB202
S315200001C00F23FB181B785BB213435AB20F23FB187D
S315200001D01A70044A0F23FB181B781370C046BD46BD
S315200001E004B080BD1410024080B584B000AF020078
S315200001F0FB1D1A70114A0F23FB1812781A700F2351
S31520000200FB180F22BA18127804218A431A70FB1D94
S315200002101B785BB2DB435BB20F22BA18127852B25C
S3152000022013405AB20F23FB181A70044A0F23FB18E7
S315200002301B781370C046BD4604B080BD1410024022
S3152000024080B582B000AF0200FB1D1A70FB1D1B7823
S31520000250082B0CD002DC002B05D01AE0102B0DD079
S31520000260182B12D015E01820FFF7BEFF11E008204A
S31520000270FFF78DFF1020FFF7B7FF0AE01020FFF7EA
S3152000028086FF0820FFF7B0FF03E01820FFF77FFF67
S31520000290C046C046BD4602B080BD80B500AF4020F6
S315200002A0FFF775FF0A20FFF741FF7820FFF79CFF35
S315200002B01E20FFF744FF2020FFF769FF6420FFF789
S315200002C03EFF18213E2000F0E3F818213F2000F0E1
S315200002D0DFF81821C02000F0DBF81821402000F0BC
S315200002E0D7F81821B82000F0D3F80020FFF7A8FF90
S315200002F0C046BD4680BD80B582B000AF4020FFF726
S3152000030073FF144B144A1A600120FFF76DFF022079
S31520000310FFF73DFFFFF732FF4020FFF738FFFFF7DB
S315200003202DFF0E4B1B78DAB2FB1D7F218A431A70F4
S315200003304020FFF759FFFFF721FFFB1D1B78002BFD
S3152000034000D0E9E7C046034B054A1A60C046BD46C1
S3152000035002B080BD00100240555500001110024029
S315200003605555555580B584B000AF0200FB1D1A7057
S315200003704020FFF739FF1C4B1C4A1A600320FFF769
S3152000038006FFFB1D1B781800FFF75AFFFFF7F6FE46
S315200003904020FFF7FCFEFFF7F1FE154A0F23FB185E
S315200003A012781A704020FFF71FFF0F4B114A1A6070
S315200003B0FB1D1B780822134004D00820FFF740FFBE
S315200003C0FFF799FFFB1D1B781022134004D0102045
S315200003D0FFF736FFFFF78FFF0F23FB181B78180058
S315200003E0BD4604B080BDC0460010024055550000F1
S315200003F0111002405555555580B582B000AF020008
S31520000400FB1D1A70FB1D1B781800FFF7ABFFFB1DA9
S315200004101B781800FFF7A6FF03001800BD4602B0A0
S3152000042080BD80B582B000AF0200FB1D1A70BB1DD7
S315200004300A1C1A70154AFB1D1B781370BB1D1B78EE
S315200004401800FFF7FDFEFFF799FE4020FFF79FFEFD
S31520000450FFF794FE4020FFF7C7FEBB1D1B7808223E
S31520000460134004D00820FFF7EBFEFFF744FFBB1D27
S315200004701B781022134004D01020FFF7E1FEFFF76F
S315200004803AFFC046BD4602B080BDC04615100240A8
S3152000049080B582B000AF0200FB1D1A70BB1D0A1C7E
S315200004A01A704020FFF7A0FEBB1D1B781800FFF72F
S315200004B0C7FE0320FFF798FEBB1D1A78FB1D1B788D
S315200004C011001800FFF7ADFFC046BD4602B080BD43
S315200004D080B582B000AF0200FB1D1A70BB1D0A1C3E
S315200004E01A704020FFF780FEBB1D1B781800FFF70F
S315200004F0A7FE0120FFF74BFE0220FFF775FEBB1D6E
S315200005001A78FB1D1B7811001800FFF78AFFC046DA
S31520000510BD4602B080BD80B582B000AFBB1D0022B3
S315200005201A7023E0BB1D1B78482252421343DBB2CC
S3152000053018211800FFF7ACFF18214020FFF7A8FF6D
S31520000540FB1D00221A7008E018210020FFF7C0FFCB
S31520000550FB1D1A78FB1D01321A70FB1D1B783F2BE1
S31520000560F2D9BB1D1A78BB1D01321A70BB1D1B7830
S31520000570072BD7D9C046BD4602B080BD90B589B0FD
S3152000058000AFF860B9607A60FB68002B00DCBCE045
S31520000590BB68002B00DCB8E0FB68802B00DDB4E0F4
S315200005A0BB68402B00DDB0E0BB68013B002B00DAC6
S315200005B00733DB10BB61BB68013B564A134004D5A9
S315200005C0013B0822524213430133072B2CD89A00B1
S315200005D0514BD3181B689F461F23FB1801221A7004
S315200005E022E01F23FB1802221A701DE01F23FB188E
S315200005F004221A7018E01F23FB1808221A7013E031
S315200006001F23FB1810221A700EE01F23FB1820222E
S315200006101A7009E01F23FB1840221A7004E01F23DA
S31520000620FB1880221A70C0467B68002B06D11F2338
S31520000630FB181F22BA181278D2431A70FB68402B77
S3152000064007DD1E23FB1810221A70FB68413BFB6056
S3152000065006E01E23FB1808221A70FB68013BFB608C
S31520000660FB685BB2402213435BB2DAB21E23FB184F
S315200006701B7819001000FFF70BFFBB695BB24822FD
S31520000680524213435BB2DAB21E23FB181B781900C1
S315200006901000FFF7FDFE1723FC181E23FB181B78FE
S315200006A01800FFF7A9FE03002370FB685BB2402207
S315200006B013435BB2DAB21E23FB181B781900100015
S315200006C0FFF7E6FE7B68002B0AD01F23FB181F22AC
S315200006D0B9181722BA18097812780A431A7009E04D
S315200006E01F23FB181F22BA181721791812780978A8
S315200006F00A401A701E23FB181A781F23FB181B7832
S3152000070011001800FFF7E4FE00E0C046BD4609B020
S3152000071090BDC04607000080340800200022430810
S315200007208B4274D303098B425FD3030A8B4244D393
S31520000730030B8B4228D3030C8B420DD3FF220902D5
S3152000074012BA030C8B4202D31212090265D0030B94
S315200007508B4219D300E0090AC30B8B4201D3CB038A
S31520000760C01A5241830B8B4201D38B03C01A5241CC
S31520000770430B8B4201D34B03C01A5241030B8B42CE
S3152000078001D30B03C01A5241C30A8B4201D3CB02B9
S31520000790C01A5241830A8B4201D38B02C01A52419E
S315200007A0430A8B4201D34B02C01A5241030A8B42A1
S315200007B001D30B02C01A5241CDD2C3098B4201D3B9
S315200007C0CB01C01A524183098B4201D38B01C01A37
S315200007D0524143098B4201D34B01C01A52410309AE
S315200007E08B4201D30B01C01A5241C3088B4201D35D
S315200007F0CB00C01A524183088B4201D38B00C01A0A
S31520000800524143088B4201D34B00C01A5241411A30
S3152000081000D20146524110467047FFE701B500203D
S3152000082000F006F802BDC0460029F7D076E77047EB
S315200008307047C046D8050020E2050020EC050020C0
S31520000840F6050020000600200A06002014060020D7
S309200008501E0600203A
S70520000000DA
