S01300002E2F44656275672F4C6162352E7331392A
S315200000000248854600F020FDFEE7C04600C00120DC
S3152000001080B582B000AF0200FB1D1A70BB1D0A1C02
S315200000201A70402000F092F9BB1D1B78180000F0D2
S31520000030B9F9032000F08AF9FB1D1A78BB1D1B783D
S315200000401900100000F0EBF8C046BD4602B080BD96
S3152000005080B582B000AF0200FB1D1A70BB1D0A1CC2
S315200000601A70402000F072F9BB1D1B78180000F0B2
S3152000007099F9012000F03DF9022000F067F9FB1DF7
S315200000801A78BB1D1B781900100000F0C8F8C0466E
S31520000090BD4602B080BD80B500AF402000F029F9F2
S315200000A00A2000F0C3FD782000F050F91E2000F051
S315200000B0D1FD202000F01DF9642000F0CBFD182191
S315200000C03E20FFF7A5FF18213F20FFF7A1FF1821AB
S315200000D0C020FFF79DFF18214020FFF799FF182128
S315200000E0B820FFF795FF002000F05CF9C046BD461A
S315200000F080BD80B582B000AF402000F027F9144BB8
S31520000100144A1A60012000F021F9022000F0F1F8CB
S3152000011000F0BFFD402000F0ECF800F0BAFD0E4BD9
S315200001201B78DAB2FB1D7F218A431A70402000F02B
S315200001300DF900F0AEFDFB1D1B78002B00D0E9E782
S31520000140C046034B054A1A60C046BD4602B080BD74
S3152000015000100240555500001110024055555555C6
S3152000016080B584B000AF0200FB1D1A70402000F05D
S31520000170EDF81C4B1C4A1A60032000F0BAF8FB1D50
S315200001801B78180000F00EF900F083FD402000F0E7
S31520000190B0F800F07EFD154A0F23FB1812781A706E
S315200001A0402000F0D3F80F4B114A1A60FB1D1B7834
S315200001B00822134004D0082000F0F4F8FFF799FF36
S315200001C0FB1D1B781022134004D0102000F0EAF803
S315200001D0FFF78FFF0F23FB181B781800BD4604B0CE
S315200001E080BDC04600100240555500001110024047
S315200001F05555555580B582B000AF0200FB1D1A70CB
S31520000200FB1D1B781800FFF7ABFFFB1D1B781800A2
S31520000210FFF7A6FF03001800BD4602B080BD80B5DB
S3152000022082B000AF0200FB1D1A70BB1D0A1C1A709B
S31520000230154AFB1D1B781370BB1D1B78180000F098
S31520000240B1F800F026FD402000F053F800F021FD23
S31520000250402000F07BF8BB1D1B780822134004D0F9
S31520000260082000F09FF8FFF744FFBB1D1B781022E3
S31520000270134004D0102000F095F8FFF73AFFC0464F
S31520000280BD4602B080BDC0461510024080B582B082
S3152000029000AFBB1D00221A7023E0BB1D1B7848222D
S315200002A052421343DBB218211800FFF7B1FE182182
S315200002B04020FFF7ADFEFB1D00221A7008E0182132
S315200002C00020FFF7C5FEFB1D1A78FB1D01321A70B0
S315200002D0FB1D1B783F2BF2D9BB1D1A78BB1D0132A3
S315200002E01A70BB1D1B78072BD7D9C046BD4602B056
S315200002F080BD80B584B000AF0200FB1D1A70124A83
S315200003000F23FB1812781A700F23FB180F22BA1826
S31520000310127804218A431A70FB1D1B785BB20422D3
S3152000032093435AB20F23FB181B785BB213435AB27E
S315200003300F23FB181A70044A0F23FB181B7813701F
S31520000340C046BD4604B080BD1410024080B584B0BE
S3152000035000AF0200FB1D1A70114A0F23FB181278FA
S315200003601A700F23FB180F22BA18127804218A4319
S315200003701A70FB1D1B785BB2DB435BB20F22BA18E7
S31520000380127852B213405AB20F23FB181A70044A3D
S315200003900F23FB181B781370C046BD4604B080BDE2
S315200003A01410024080B582B000AF0200FB1D1A7007
S315200003B0FB1D1B78082B0CD002DC002B05D01AE085
S315200003C0102B0DD0182B12D015E01820FFF7BEFFEA
S315200003D011E00820FFF78DFF1020FFF7B7FF0AE096
S315200003E01020FFF786FF0820FFF7B0FF03E0182054
S315200003F0FFF77FFFC046C046BD4602B080BD80B530
S3152000040084B000AF0200FB1D1A700D4A0F23FB18A3
S3152000041012781A70FA1D0F23FB1812781B781343D3
S31520000420DAB20F23FB1804210A431A70044A0F2359
S31520000430FB181B781370C046BD4604B080BDC0466D
S315200004401410024080B584B000AF0200FB1D1A7064
S315200004500F4A0F23FB1812781A70FB1D1B785BB20C
S31520000460DB435BB2042213435BB20F22BA18127825
S3152000047052B213405AB20F23FB181A70044A0F23A4
S31520000480FB181B781370C046BD4604B080BDC0461D
S315200004901410024080B582B000AF0200FB1D1A7016
S315200004A04020FFF7ACFF064AFB1D1B781370402047
S315200004B0FFF7C8FF00F098FBC046BD4602B080BDDE
S315200004C01510024080B582B000AF0200FB1D1A70E5
S315200004D00320FFF7B7FFFB1D1B781800FFF7DAFF95
S315200004E0C046BD4602B080BD80B582B000AF0200D6
S315200004F0FB1D1A700220FFF7A5FF0120FFF77FFFE3
S31520000500FB1D1B781800FFF7C5FFC046BD4602B08D
S3152000051080BD80B582B000AF4020FFF770FF00F0AD
S3152000052063FB00F061FB064AFB1D12781A7040201F
S31520000530FFF788FFFB1D1B781800BD4602B080BD63
S315200005401110024090B583B000AF0B4B0B4A1A60D6
S315200005500220FFF754FF0120FFF774FFFC1DFFF771
S31520000560D8FF03002370044B054A1A60FB1D1B7835
S315200005701800BD4603B090BD00100240555500003E
S315200005805555555590B583B000AF0B4B0B4A1A60A5
S315200005900220FFF734FF0120FFF731FFFC1DFFF794
S315200005A0B8FF03002370044B054A1A60FB1D1B7815
S315200005B01800BD4603B090BD0010024055550000FE
S315200005C05555555580B500AFC046FFF7BBFF030014
S315200005D01A0080231340802BF7D0082000F026FB3A
S315200005E0C046BD4680BD80B582B000AF0200FB1D6F
S315200005F01A70FFF7E7FFFB1D1B781800FFF774FF43
S31520000600272000F013FBC046BD4602B080BD80B552
S3152000061000AFFFF7D7FF0C20FFF754FF272000F08D
S3152000062005FBFFF7CFFF3820FFF74CFF272000F010
S31520000630FDFAFFF7C7FF0120FFF744FF022000F075
S3152000064009FBFFF7BFFF0620FFF73CFF272000F03E
S31520000650EDFAC046BD4680BD80B584B000AF02002D
S31520000660FB1D1A70BB1D0A1C1A70FFF7ABFFBB1DC2
S315200006701B78012B0BD0FB1D1B78013BDBB25BB239
S31520000680402213435AB20F23FB181A7005E00F239A
S31520000690FB18FA1D1278013A1A700F23FB181B78E3
S315200006A0802252421343DBB21800FFF70BFFC046ED
S315200006B0BD4604B080BD80B584B000AFF860B96097
S315200006C07A60FB68BA685A60FB687A689A60C046A6
S315200006D0BD4604B080BD80B586B000AF78607B682B
S315200006E01B680C337B6100233B6117E07B68DB686A
S315200006F07A6912789B18FB607B681B697A69527845
S315200007009B18BB60B968FB680122180000F0CAFA82
S315200007107B6902337B613B6901333B617B681B68E4
S315200007201A683B699A42E1DCC046BD4606B080BDE8
S3152000073080B586B000AF78607B681B680C337B6120
S3152000074000233B6117E07B68DB687A6912789B1887
S31520000750FB607B681B697A6952789B18BB60B96815
S31520000760FB680022180000F09DFA7B6902337B614A
S315200007703B6901333B617B681B681A683B699A4277
S31520000780E1DCC046BD4606B080BD80B584B000AF72
S3152000079078607B681800FFF7CBFF7B68DA687B6898
S315200007A05B68D2187B68DA607B681A697B689B680D
S315200007B0D2187B681A617B68DB68FB607B681B69E3
S315200007C0BB607B681800FFF786FFC046BD4604B0B5
S315200007D080BD80B584B000AF78607B68180000F0DB
S315200007E048F87B68DA687B685B68D2187B68DA60D1
S315200007F07B681A697B689B68D2187B681A617B685C
S31520000800DB68FB607B681B69BB607B68180000F0B7
S3152000081004F8C046BD4604B080BD80B584B000AFA4
S3152000082078600023FB601AE00023BB600EE07B6843
S31520000830DA68FB68D0187B681A69BB68D31801226E
S31520000840190000F02FFABB680133BB607B681B6878
S315200008509A68BB689A42EADCFB680133FB607B68D6
S315200008601B685A68FB689A42DEDCC046BD4604B067
S3152000087080BD80B584B000AF78600023FB601AE0AD
S315200008800023BB600EE07B68DA68FB68D0187B68C3
S315200008901A69BB68D3180022190000F003FABB6856
S315200008A00133BB607B681B689A68BB689A42EADCA6
S315200008B0FB680133FB607B681B685A68FB689A42B9
S315200008C0DEDCC046BD4604B080BD80B500AF0E4B11
S315200008D00E4A1A600E4B00221A800E4B0E4A1A60E0
S315200008E00E4B0F4A1A600F4B0F4A1A600F4B70229D
S315200008F01A800F4BAA221A600E4B0E4A1278D2B2D9
S315200009001A70C046BD4680BD00100240555555554B
S31520000910041002400C1002400000555508100240F9
S3152000092055550000000C024055550055040C024058
S315200009300C0C0240150C024080B582B000AF124A62
S31520000940FB1D12781A70FB1D1B780822134001D05C
S31520000950042315E0FB1D1B780422134001D003233A
S315200009600EE0FB1D1B780222134001D0022307E074
S31520000970FB1D1B780122134001D0012300E0002338
S315200009801800BD4602B080BD110C024080B582B071
S3152000099000AF78607B68042B19D87B689A000E4BD1
S315200009A0D3181B689F460D4B10221A700FE00B4B75
S315200009B020221A700BE0094B40221A7007E0074BE1
S315200009C080221A7003E0054B00221A70C046C046EA
S315200009D0BD4602B080BDC0461C120020150C024048
S315200009E090B587B000AF3B00164A13CA13C31268EE
S315200009F01A6001237B6119E07B691800FFF7C6FFA7
S31520000A00FFF79AFF03003B613B69002B0BD00020C8
S31520000A10FFF7BCFF7B69013B9A003B69013BD3187A
S31520000A203A00D35C09E07B6901337B617B69042B47
S31520000A30E2DD0020FFF7AAFFFF231800BD4607B01E
S31520000A4090BDC0463012002090B587B000AFFFF7AA
S31520000A503CFF624B7B61624B3B61624BFB60FFF765
S31520000A601AFBFFF7D4FD00F097FAFFF70FFC3B695E
S31520000A705B693A6910009847FB685B69FA68100061
S31520000A8098477B691B6A78690022052198477B690C
S31520000A90180000F0E0F97B69DB697A691000984755
S31520000AA03B69DB693A6910009847FB68DB69FA689D
S31520000AB010009847282000F0CDF80B23FC18FFF7EC
S31520000AC08FFF030023700B23FB181B78012B02D00A
S31520000AD0072B08D00EE03B691B6A02225242386976
S31520000AE00021984706E03B691B6A386902220021EB
S31520000AF09847C046FB681A697B691B699A4205DAE2
S31520000B00FB681B6AF868022200219847FB681A696D
S31520000B107B691B699A4206DDFB681B6A02225242E8
S31520000B20F868002198477B691B69002B07DC7B69E5
S31520000B301C6A7B6959687B6902221800A0477B6979
S31520000B401B693C2B08DD7B691C6A7B69596802237B
S31520000B505A427B691800A0477B691B697B60FB684A
S31520000B601B693B607B69DB68052B16DC7B691B698F
S31520000B709A1C3B691B699A420FDD7B691B699A1C8B
S31520000B803B691B690A339A4207DA7B691C6A7B69CF
S31520000B909A687B6902211800A0477B69DB68772B5E
S31520000BA000DC74E77B691B699A1CFB681B699A4207
S31520000BB000DC6CE77B691B699A1CFB681B690A339E
S31520000BC09A4200DB63E77B691C6A7B699A68022389
S31520000BD059427B691800A04759E7C046B01100204A
S31520000BE0D4110020F811002080B500AF0C4B002254
S31520000BF01A600C4B29221A600B4B00221A60084BF4
S31520000C0005221A60C046064B1A6880235B021340F1
S31520000C10F9D0034B00221A60C046BD4680BDC046AF
S31520000C2010E000E014E000E018E000E080B582B0BB
S31520000C3000AF78607A68FA239900100000F0F4F982
S31520000C4003007B607B6801337B60C046C046BD469F
S31520000C5002B080BD80B582B000AF78607A68FA2392
S31520000C609900100000F0E0F903007B607B680133F7
S31520000C707B6007E0FA239B001800FFF7D7FF7B680D
S31520000C80013B7B607B68002BF4D1C046BD4602B099
S31520000C9080BD80B500AFFFF7A7FFFFF7A5FFC046D1
S31520000CA0BD4680BD90B589B000AFF860B9607A6066
S31520000CB0FB68002B00DCBCE0BB68002B00DCB8E046
S31520000CC0FB68802B00DDB4E0BB68402B00DDB0E084
S31520000CD0BB68013B002B00DA0733DB10BB61BB6826
S31520000CE0013B564A134004D5013B08225242134386
S31520000CF00133072B2CD89A00514BD3181B689F46DB
S31520000D001F23FB1801221A7022E01F23FB18022240
S31520000D101A701DE01F23FB1804221A7018E01F23E7
S31520000D20FB1808221A7013E01F23FB1810221A70D2
S31520000D300EE01F23FB1820221A7009E01F23FB1840
S31520000D4040221A7004E01F23FB1880221A70C04626
S31520000D507B68002B06D11F23FB181F22BA18127896
S31520000D60D2431A70FB68402B07DD1E23FB18102286
S31520000D701A70FB68413BFB6006E01E23FB18082225
S31520000D801A70FB68013BFB60FB685BB24022134391
S31520000D905BB2DAB21E23FB181B7819001000FFF78E
S31520000DA037F9BB695BB24822524213435BB2DAB2CF
S31520000DB01E23FB181B7819001000FFF729F91723AB
S31520000DC0FC181E23FB181B781800FFF713FA0300E4
S31520000DD02370FB685BB2402213435BB2DAB21E2358
S31520000DE0FB181B7819001000FFF712F97B68002BFF
S31520000DF00AD01F23FB181F22B9181722BA18097800
S31520000E0012780A431A7009E01F23FB181F22BA180A
S31520000E1017217918127809780A401A701E23FB18B0
S31520000E201A781F23FB181B7811001800FFF710F9FA
S31520000E3000E0C046BD4609B090BDC0460700008010
S31520000E404012002080B582B000AF78603960C0467D
S31520000E50BD4602B080BD80B582B000AF78607B68A9
S31520000E60DB68002B0EDC4A4B1B685A1C484B1A6069
S31520000E707B681B6A786803220221984700F0B2F843
S31520000E8000F08AF87B68DB68782B0FDD7B681B6AAD
S31520000E900222514278680322984700F0A3F83D4B7E
S31520000EA01B685A1C3B4B1A6000F076F8394B1B68BE
S31520000EB0052B32D102210120FFF7CEFB5020FFF770
S31520000EC092FB4C20FFF78FFB4120FFF78CFB59202C
S31520000ED0FFF789FB4520FFF786FB5220FFF783FBB0
S31520000EE02020FFF780FB3120FFF77DFB2020FFF736
S31520000EF07AFB5720FFF777FB4F20FFF774FB4E2036
S31520000F00FFF771FB2120FFF76EFB7B681B6A786871
S31520000F1000220021984700F077F81D4B1B68052B0F
S31520000F2032D102210120FFF797FB5020FFF75BFB10
S31520000F304C20FFF758FB4120FFF755FB5920FFF7C0
S31520000F4052FB4520FFF74FFB5220FFF74CFB20209A
S31520000F50FFF749FB3220FFF746FB2020FFF743FB34
S31520000F605720FFF740FB4F20FFF73DFB4E20FFF7B2
S31520000F703AFB2120FFF737FB7B681B6A7868002243
S31520000F800021984700F040F8C046BD4602B080BD1B
S31520000F90441100204011002080B500AF0121082017
S31520000FA0FFF75AFB0D4B1B68DBB23033DBB2180060
S31520000FB0FFF719FB2020FFF716FB2D20FFF713FB69
S31520000FC02020FFF710FB064B1B68DBB23033DBB269
S31520000FD01800FFF708FBC046BD4680BD4011002023
S31520000FE04411002080B582B000AF78607B6818007D
S31520000FF0FFF79EFB7B683C22DA607B681E221A6123
S31520001000C046BD4602B080BD90B583B000AFFC1D82
S31520001010FFF7E6FC03002370FB1D1B78302BF6D16F
S31520001020FFF712FDF3E7C046002243088B4274D334
S3152000103003098B425FD3030A8B4244D3030B8B42B3
S3152000104028D3030C8B420DD3FF22090212BA030CBC
S315200010508B4202D31212090265D0030B8B4219D39D
S3152000106000E0090AC30B8B4201D3CB03C01A5241BD
S31520001070830B8B4201D38B03C01A5241430B8B4205
S3152000108001D34B03C01A5241030B8B4201D30B03EE
S31520001090C01A5241C30A8B4201D3CB02C01A524115
S315200010A0830A8B4201D38B02C01A5241430A8B42D8
S315200010B001D34B02C01A5241030A8B4201D30B02C1
S315200010C0C01A5241CDD2C3098B4201D3CB01C01ADB
S315200010D0524183098B4201D38B01C01A52414309E5
S315200010E08B4201D34B01C01A524103098B4201D3D3
S315200010F00B01C01A5241C3088B4201D3CB00C01A40
S31520001100524183088B4201D38B00C01A52414308B7
S315200011108B4201D34B00C01A5241411A00D20146DC
S31520001120524110467047FFE701B5002000F006F84F
S3152000113002BDC0460029F7D076E770477047C04603
S3152000114000000000000000000C0000000400000069
S315200011500400000000010002010001010102010358
S315200011600200020102020203030103020000000042
S315200011700000000000000000000000000000000049
S31520001180020000000A00000000000000000000002D
S315200011900000000000000000000000000000000029
S315200011A00000000000000000000000000000000019
S315200011B04811002000000000000000005000000040
S315200011C00A0000001B080020310700208B070020A2
S315200011D0B70600207C11002000000000000000005F
S315200011E0030000001E0000001B08002073080020DA
S315200011F0D3070020B70600207C1100200000000045
S31520001200000000007D0000001E0000001B080020DA
S3152000121073080020D3070020B7060020C609002047
S31520001220A6090020AE090020B6090020BE0900202C
S315200012300102030A0405060B0708090C0E000F0D10
S31520001240000D00200A0D0020140D00201E0D002088
S31520001250280D0020320D00203C0D0020460D0020D8
S70520000000DA
