S01B00002E2F44656275672F706F6E675F776F726B696E672E73313952
S315200000000248854600F0AEFFFEE7C04600C001204C
S3152000001080B582B000AF786039607B683A689A60B4
S31520000020C046BD4602B080BD80B584B000AF7860C2
S315200000300023FB601EE07B681A68FB6804335B00C4
S31520000040D31804331B781A007B68DB68D0187B68CA
S315200000501A68FB6804335B00D31805331B781A0033
S315200000607B681B69D3180122190000F085FCFB6808
S315200000700133FB607B681B681A68FB689A42DADCEE
S31520000080C046BD4604B080BD80B584B000AF786060
S315200000900023FB601EE07B681A68FB6804335B0064
S315200000A0D31804331B781A007B68DB68D0187B686A
S315200000B01A68FB6804335B00D31805331B781A00D3
S315200000C07B681B69D3180022190000F055FCFB68D9
S315200000D00133FB607B681B681A68FB689A42DADC8E
S315200000E0C046BD4604B080BD80B582B000AF786002
S315200000F07B681800FFF7C8FF7B68DA687B685B6857
S31520000100D2187B68DA607B681A697B689B68D2188C
S315200001107B681A617B68DB68002B0CDC7B685B687C
S315200001205A427B685A607B68DA687B685B68D218BB
S315200001307B68DA6013E07B68DA687B681B685B683B
S31520000140D318802B0BDD7B685B685A427B685A602C
S315200001507B68DA687B685B68D2187B68DA607B68C4
S315200001601B69002B0CDC7B689B685A427B689A6073
S315200001707B681A697B689B68D2187B681A6113E0D2
S315200001807B681A697B681B689B68D318402B0BDD3C
S315200001907B689B685A427B689A607B681A697B6891
S315200001A09B68D2187B681A617B681800FFF73CFFB2
S315200001B0C046BD4602B080BD80B584B000AF786031
S315200001C039607B68DA683B68D31AFB607B681B68FA
S315200001D05A68FB689A4202DBFB68002B01DA00238F
S315200001E000E001231800BD4604B080BD80B584B070
S315200001F000AF786039607B681A693B68D31AFB6068
S315200002007B681B689A68FB689A4202DBFB68002BB6
S3152000021001DA002300E001231800BD4604B080BDAA
S3152000022080B582B000AF786039607B683A685A60E2
S31520000230C046BD4602B080BD80B582B000AF7860B2
S3152000024039607B683A689A60C046BD4602B080BD78
S3152000025080B584B000AF78600023FB601EE07B6829
S315200002601A68FB6804335B00D31804331B781A0022
S315200002707B68DB68D0187B681A68FB6804335B00F0
S31520000280D31805331B781A007B681B69D318012203
S31520000290190000F071FBFB680133FB607B681B686B
S315200002A01A68FB689A42DADCC046BD4604B080BDB7
S315200002B080B584B000AF78600023FB601EE07B68C9
S315200002C01A68FB6804335B00D31804331B781A00C2
S315200002D07B68DB68D0187B681A68FB6804335B0090
S315200002E0D31805331B781A007B681B69D3180022A4
S315200002F0190000F041FBFB680133FB607B681B683B
S315200003001A68FB689A42DADCC046BD4604B080BD56
S3152000031080B584B000AFF860B9607A60FB681800D9
S31520000320FFF7C6FFFA68BB681100180000F072F8E4
S315200003300300012B08D0FA687B681100180000F032
S3152000034069F80300012B04D1FB685B685A42FB68FD
S315200003505A60FB68DA68FB685B68D218FB68DA606B
S31520000360FB681A69FB689B68D218FB681A61FB68F0
S315200003701B69002B05DCFB689B685A42FB689A6068
S315200003800CE0FB681A69FB681B689B68D318402B36
S3152000039004DDFB689B685A42FB689A60FB6818007C
S315200003A0FFF756FFC046BD4604B080BD80B584B079
S315200003B000AF786039607B68DA683B68D31AFB60E7
S315200003C07B681B685A68FB689A4202DBFB68002B35
S315200003D001DA002300E001231800BD4604B080BDE9
S315200003E080B584B000AF786039607B681A693B6855
S315200003F0D31AFB607B681B689A68FB689A4202DB0B
S31520000400FB68002B01DA002300E001231800BD461B
S3152000041004B080BD80B588B000AF78603960002315
S31520000420FB614CE00023BB6140E07B681A68FB69F6
S3152000043004335B00D31804331B781A007B68DB680F
S31520000440D3187B617B681A68FB6904335B00D31879
S3152000045005331B781A007B681B69D3183B613B6800
S315200004601A68BB6904335B00D31804331B781A005F
S315200004703B68DB68D318FB603B681A68BB690433AA
S315200004805B00D31805331B781A003B681B69D31809
S31520000490BB607A69FB689A4205D13A69BB689A4281
S315200004A001D1012312E0BB690133BB613B681B68A4
S315200004B01A68BB699A42B8DCFB690133FB617B6829
S315200004C01B681A68FB699A42ACDC00231800BD46FB
S315200004D008B080BD80B500AF0E4B18221A600E4BB7
S315200004E00E4A1A600E4B00221A800E4B0B4A1A60D7
S315200004F00D4B0E4A1A600E4BAA22D2051A600D4BDE
S3152000050000221A800C4BAA2212041A60C046BD464D
S3152000051080BDC04630380240001002405555555522
S3152000052004100240081002400C10024000005555ED
S31520000530000C0240040C02400C0C024080B500AFB7
S315200005400C4B00221A600C4B29221A600B4B0022FE
S315200005501A60084B05221A60C046064B1A6880238B
S315200005605B021340F9D0034B00221A60C046BD46F9
S3152000057080BDC04610E000E014E000E018E000E096
S3152000058080B500AFFFF7DAFFFFF7D8FFC046BD46BC
S3152000059080BD80B582B000AF7860C046C046BD46FB
S315200005A002B080BD80B582B000AF78600AE001203D
S315200005B0FFF7EFFFFA239B001800FFF7EAFF7B689F
S315200005C0013B7B607B68002BF1D1C046BD4602B063
S315200005D080BD80B582B000AF0200FB1D1A700949AC
S315200005E0084B1B78DBB25AB2FB1D1B785BB204208A
S315200005F083435BB213435BB2DBB20B70C046BD468E
S3152000060002B080BD1410024080B582B000AF020057
S31520000610FB1D1A700849084B1B78DBB2FA1D1278AD
S31520000620D243D2B21340DBB204229343DBB20B7027
S31520000630C046BD4602B080BD1410024080B582B0CF
S3152000064000AF0200FB1D1A70FB1D1B78082B0CD077
S3152000065002DC002B05D01AE0102B0DD0182B12D05F
S3152000066015E01820FFF7D0FF11E00820FFF7B1FFB3
S315200006701020FFF7C9FF0AE01020FFF7AAFF082085
S31520000680FFF7C2FF03E01820FFF7A3FFC046C046CE
S31520000690BD4602B080BD80B582B000AF4020FFF7D6
S315200006A0B3FF164B164A1A600120FFF7ADFF022052
S315200006B0FFF78FFFFFF764FF4020FFF78AFFFFF762
S315200006C05FFF104B1B78DAB2FB1D7F218A431A701D
S315200006D0FB1D1B78002B05D04020FFF795FFFFF769
S315200006E04FFFE9E7C046054B074A1A604020FFF74F
S315200006F070FFC046BD4602B080BDC0460010024015
S3152000070055550000111002405555555580B584B0F9
S3152000071000AF0200FB1D1A701D4B1E4A1A60FB1DFE
S315200007201B781800FFF78AFF4020FFF76DFF032094
S31520000730FFF74FFFFFF724FF4020FFF74AFFFFF7A1
S315200007401FFF154A0F23FB1812781A704020FFF757
S315200007505BFF0F4B114A1A60FB1D1B7808221340C2
S3152000076004D00820FFF76AFFFFF795FFFB1D1B78D3
S315200007701022134004D01020FFF760FFFFF78BFFF5
S315200007800F23FB181B781800BD4604B080BDC04659
S315200007900010024055550000111002405555555580
S315200007A080B582B000AF0200FB1D1A70BB1D0A1C6B
S315200007B01A701A4AFB1D1B781370BB1D1B78180074
S315200007C0FFF73CFFFFF7DCFE4020FFF702FFFFF7B5
S315200007D0D7FE4020FFF718FFBB1D1B7808221340C9
S315200007E004D00820FFF72AFFFFF755FFBB1D1B7813
S315200007F01022134004D01020FFF720FFFFF74BFFF5
S31520000800064B00221A704020FFF7E3FE0020FFF778
S3152000081015FFC046BD4602B080BDC0461510024039
S3152000082080B582B000AF0200FB1D1A70BB1D0A1CEA
S315200008301A704020FFF7E8FE0320FFF7E5FEBB1DF8
S315200008401A78FB1D1B7811001800FFF7A9FFC04678
S31520000850BD4602B080BD80B582B000AF0200FB1D50
S315200008601A70BB1D0A1C1A704020FFF7CDFE01200E
S31520000870FFF7AFFE0220FFF7C7FEBB1D1A78FB1D50
S315200008801B7811001800FFF78BFFC046BD4602B04B
S3152000089080BD80B500AF4020FFF79BFE0A20FFF702
S315200008A078FE7820FFF7B0FE1E20FFF77BFE202083
S315200008B0FFF78FFE18213E20FFF7B2FF18213F20B9
S315200008C0FFF7AEFF1821C020FFF7AAFF182140200E
S315200008D0FFF7A6FF1821B820FFF7A2FF0020FFF799
S315200008E0ADFEC046BD4680BD80B582B000AFBB1D03
S315200008F000221A7023E0BB1D1B7848225242134364
S31520000900DBB218211800FFF78BFF18214020FFF7D4
S3152000091087FFFB1D00221A7008E018210020FFF730
S315200009209AFFFB1D1A78FB1D01321A70FB1D1B78DE
S315200009303F2BF2D9BB1D1A78BB1D01321A70BB1D85
S315200009401B78072BD7D9C046BD4602B080BD80B5DF
S3152000095082B000AF0200FB1D1A70FB1D1B78180029
S31520000960FFF7D4FEFB1D1B781800FFF7CFFE030010
S315200009701800BD4602B080BD90B589B000AFF860C2
S31520000980B9607A60FB68802B00DDB8E0BB68402B3D
S3152000099000DDB4E0BB68013B002B00DA0733DB1037
S315200009A0BB61BB68013B584A134004D5013B082272
S315200009B0524213430133072B2CD89A00534BD3189A
S315200009C01B689F461F23FB1801221A7022E01F2353
S315200009D0FB1802221A701DE01F23FB1804221A702E
S315200009E018E01F23FB1808221A7013E01F23FB1898
S315200009F010221A700EE01F23FB1820221A7009E01D
S31520000A001F23FB1840221A7004E01F23FB188022A4
S31520000A101A70C0467B68002B06D11F23FB181F22A5
S31520000A20BA181278D2431A70FB68402B07DD1E23B2
S31520000A30FB1810221A70FB68413BFB6006E01E2360
S31520000A40FB1808221A70FB68013BFB60FB685BB24F
S31520000A50402213435BB2DAB21E23FB181B7819001F
S31520000A601000FFF7DDFEBB695BB2482252421343FA
S31520000A705BB2DAB21E23FB181B7819001000FFF7B1
S31520000A80CFFE1723FC181E23FB181B781800FFF730
S31520000A905EFF03002370FB685BB2402213435BB208
S31520000AA0DAB21E23FB181B7819001000FFF7B8FED8
S31520000AB07B68002B0AD01F23FB181F22B918172288
S31520000AC0BA18097812780A431A7009E01F23FB180E
S31520000AD01F22BA1817217918127809780A401A7035
S31520000AE01E23FB181A781F23FB181B7811001800E9
S31520000AF0FFF7B1FE18213F20FFF792FE00E0C04627
S31520000B00BD4609B090BDC0460700008050110020A8
S31520000B1080B584B000AF0200FB1D1A700C4A0F236B
S31520000B20FB1812781A70FA1D0F23FB1812781B78FF
S31520000B301343DAB20F23FB1804210A431A70044A1E
S31520000B400F23FB181B781370C046BD4604B080BD2A
S31520000B501410024080B584B000AF0200FB1D1A704D
S31520000B600F4A0F23FB1812781A70FB1D1B785BB2F5
S31520000B70DB435BB2042213435BB20F22BA1812780E
S31520000B8052B213405AB20F23FB181A70044A0F238D
S31520000B90FB181B781370C046BD4604B080BDC04606
S31520000BA01410024080B582B000AF0200FB1D1A70FF
S31520000BB04020FFF7ADFF064AFB1D1B78137040202F
S31520000BC0FFF7C8FFFFF7BAFCC046BD4602B080BD9E
S31520000BD01510024080B582B000AF0200FB1D1A70CE
S31520000BE00320FFF7B7FFFB1D1B781800FFF7DAFF7E
S31520000BF0C046BD4602B080BD80B582B000AF0200BF
S31520000C00FB1D1A700220FFF7A5FF0120FFF780FFCA
S31520000C10FB1D1B781800FFF7C5FFC046BD4602B076
S31520000C2080BD80B582B000AF4020FFF771FFFFF78F
S31520000C3085FCFFF783FC064AFB1D12781A704020BC
S31520000C40FFF788FFFB1D1B781800BD4602B080BD4C
S31520000C501110024090B583B000AF0B4B0B4A1A60BF
S31520000C600220FFF755FF0120FFF774FFFC1DFFF759
S31520000C70D8FF03002370044B054A1A60FB1D1B781E
S31520000C801800BD4603B090BD001002405555000027
S31520000C905555555580B500AFC046FFF7DBFF03001D
S31520000CA01A0080231340802BF7D00820FFF771FC11
S31520000CB0C046BD4680BD80B582B000AF0200FB1D98
S31520000CC01A70FFF7E7FFFB1D1B781800FFF794FF4C
S31520000CD02720FFF75EFCC046BD4602B080BD80B52A
S31520000CE000AFFFF7D7FF0C20FFF774FF2720FFF791
S31520000CF050FCFFF7CFFF3820FFF76CFF2720FFF7C8
S31520000D0048FCFFF7C7FF0120FFF764FF0220FFF72B
S31520000D1049FCFFF7BFFF0620FFF75CFF2720FFF700
S31520000D2038FCC046BD4680BD80B584B000AF020009
S31520000D30FB1D1A70BB1D0A1C1A70FFF7ABFFBB1DEB
S31520000D401B78012B0BD0FB1D1B78013BDBB25BB262
S31520000D50402213435AB20F23FB181A7005E00F23C3
S31520000D60FB18FA1D1278013A1A700F23FB181B780C
S31520000D70802252421343DBB21800FFF72BFFC046F6
S31520000D80BD4604B080BD80B584B000AF78603960C0
S31520000D9010223B689A400F23FB181A707B680F229B
S31520000DA0BA1812781A70C046BD4604B080BD80B508
S31520000DB084B000AF78607A680F23FB1812781A7017
S31520000DC00F23FB180F22BA1812780F210A401A7027
S31520000DD00F23FB181B78022B0AD002DC012B05D02F
S31520000DE00CE0042B06D0082B06D007E0012306E0F2
S31520000DF0022304E0032302E0042300E0002318007A
S31520000E00BD4604B080BD90B589B000AF786039602A
S31520000E100823FB18154A13CA13C312681A60002345
S31520000E20FB611AE0FA693B6811001800FFF7ABFF77
S31520000E307B681800FFF7BBFF0300BB61BB69002B73
S31520000E4008D0FB699A00BB69D318013B0822BA185F
S31520000E50D35C06E0FB690133FB61FB69032BE1DD13
S31520000E60FF231800BD4609B090BDC0467011002072
S31520000E7080B582B000AF78607B689B6A7A68002173
S31520000E80100098470300012B0CD1134B1B7801331C
S31520000E90DAB2114B1A707B68180000F021F800F0C6
S31520000EA037F814E07B689B6A7A688021100098479F
S31520000EB00300012B0BD1094B1B780133DAB2074B08
S31520000EC01A707B68180000F00BF800F021F8C04675
S31520000ED0BD4602B080BDC046311000203010002033
S31520000EE080B582B000AF78607B689B697A68100015
S31520000EF098477B684022DA607B6820221A617B68EB
S31520000F005B697A6810009847C046BD4602B080BD2E
S31520000F1080B500AF01210920FFF706FF0E4B1A7896
S31520000F200E4B1B78D318DBB21800FFF7C4FE202027
S31520000F30FFF7C1FE2D20FFF7BEFE2020FFF7BBFEE8
S31520000F40074B1A78054B1B78D318DBB21800FFF72E
S31520000F50B2FEC046BD4680BD3010002034100020B1
S31520000F603110002090B585B000AFFFF7B3FAFFF738
S31520000F70B6FEFFF7CDFF294BFB60294BBB60294B03
S31520000F807B60FFF786FCFFF7AFFCFB681800FFF7D6
S31520000F906FFFFB68DB697A68B968F8689847BB68B1
S31520000FA0DB69BA68100098477B68DB697A681000AD
S31520000FB09847FC1C1C4A1D4B11001800FFF723FF05
S31520000FC003002370FB1C1B78012B08D002DC002BAE
S31520000FD01CD022E0052B11D0072B08D01DE0BB68C2
S31520000FE01B6A02225142BA681000984715E0BB6876
S31520000FF01B6ABA680221100098470EE07B681B6ABC
S31520001000022251427A681000984706E07B681B6AE4
S315200010107A68022110009847C046B6E7C81000201B
S31520001020F810002024110020150C0240110C02405B
S3152000103000000000300000000C000000040000004A
S315200010400400000000010002010001010102010369
S315200010500200020102020203030103020000000053
S31520001060000000000000000000000000000000005A
S31520001070000000000000000000000000000000004A
S315200010801A000000020000000D0000000000010010
S315200010900001010100020102000301030004010412
S315200010A000050105000601060007010700080108E2
S315200010B000090109000A010A000B010B000C010CB2
S315200010C00000000000000000381000200100000091
S315200010D00100000040000000200000005102002016
S315200010E0B102002011030020210200203902002035
S315200010F0AD030020E1030020801000200000000046
S315200011000100000004000000020000002900002069
S3152000111089000020E900002011000020B9010020EC
S31520001120ED010020801000200000000001000000DA
S315200011307C00000002000000290000208900002019
S31520001140E900002011000020B9010020ED01002057
S31520001150C4090020CE090020D8090020E209002079
S31520001160EC090020F6090020000A00200A0A0020C7
S315200011700102030A0405060B0708090C0000000DEE
S70520000000DA
