S01B00002E2F44656275672F666C6970666C6F705F6972712E7331395F
S315200000000248854600F07CF8FEE7C04600C0012085
S3152000001080B500AF094B1B68082213400AD0084B55
S315200000201B685A1C064B1A60044B044A12680821A6
S315200000300A431A60C046BD4680BDC046143C0140F6
S315200000401C01002080B500AF1E4B1F4A1A601F4BB3
S3152000005070221A801E4BAA221A601E4B1D4A127845
S31520000060D2B21A701C4B802252001A601B4B0022FF
S315200000701A601B4B00221A801A4B10221A70194B39
S31520000080EF221A70184B184A12688021C9010A43B8
S315200000901A60164B154A126808210A431A60144B37
S315200000A0134A126808210A431A60124B124A1A6030
S315200000B0124B124A1268802189000A431A60C046F0
S315200000C0BD4680BD000C024055555555040C0240D6
S315200000D00C0C0240150C0240001002400C1002408D
S315200000E0041002401410024008380140003C014030
S315200000F00C3C014064C001201100002000E100E01A
S3152000010080B500AFFFF79EFF024A034B1B68DBB2A8
S315200001101370F9E7140C02401C01002000000000B7
S70520000000DA
