S01B00002E2F44656275672F6173636969646973706C61792E73313967
S315200000000248854600F004F8FEE7C04600C00120FD
S3152000001080B500AFC046BD4680BD80B500AF0C4B55
S3152000002000221A600B4B29221A600B4B00221A6001
S31520000030074B05221A60C046054B1A6880235B02CF
S315200000401340F9D0024B00221A60C046BD4680BD3F
S3152000005010E000E014E000E018E000E080B582B097
S3152000006000AF786007E0FFF7D8FFFFF7D6FFFFF76E
S31520000070D4FFFFF7D2FF7B685A1E7A60002BF2D19D
S31520000080C046BD4602B080BD80B582B000AF786064
S3152000009002E00120FFF7E2FF7B685A1E7A60002B00
S315200000A0F7D1C046BD4602B080BD80B584B000AF52
S315200000B00200FB1D1A700D4A0F23FB1812781A70C6
S315200000C0FA1D0F23FB1812781B781343DAB20F237D
S315200000D0FB1804210A431A70044A0F23FB181B78C5
S315200000E01370C046BD4604B080BDC0461410024001
S315200000F080B584B000AF0200FB1D1A700F4A0F2393
S31520000100FB1812781A70FB1D1B785BB2DB435BB2BF
S315200001100F22BA18127852B213405BB2042213434C
S315200001205AB20F23FB181A70044A0F23FB181B78A8
S315200001301370C046BD4604B080BDC04614100240B0
S3152000014080B582B000AF0200FB1D1A700320FFF7B6
S31520000150CFFFFB1D1B78180000F004F8C046BD46F3
S3152000016002B080BD80B582B000AF0200FB1D1A70C0
S315200001704020FFF79AFF064AFB1D1B781370FFF7F6
S315200001804CFF4020FFF7B4FFC046BD4602B080BDFD
S315200001901510024080B582B000AF4020FFF785FFE2
S315200001A0FFF73BFFFFF739FF064AFB1D12781A704F
S315200001B04020FFF79DFFFB1D1B781800BD4602B0AF
S30D200001C080BDC046111002406B
S70520000000DA
